{
  "_format": "hh3-artifact-1",
  "contractName": "CTIRegistry",
  "sourceName": "contracts/CTIRegistry.sol",
  "abi": [
    {
      "anonymous": false,
      "inputs": [
        {
          "indexed": true,
          "internalType": "bytes32",
          "name": "reportKey",
          "type": "bytes32"
        },
        {
          "indexed": false,
          "internalType": "bytes32",
          "name": "contentHash",
          "type": "bytes32"
        },
        {
          "indexed": true,
          "internalType": "address",
          "name": "publisher",
          "type": "address"
        },
        {
          "indexed": false,
          "internalType": "uint256",
          "name": "timestamp",
          "type": "uint256"
        },
        {
          "indexed": false,
          "internalType": "string",
          "name": "attackType",
          "type": "string"
        }
      ],
      "name": "CTIPublished",
      "type": "event"
    },
    {
      "inputs": [
        {
          "internalType": "bytes32",
          "name": "reportKey",
          "type": "bytes32"
        }
      ],
      "name": "getCTI",
      "outputs": [
        {
          "components": [
            {
              "internalType": "bytes32",
              "name": "contentHash",
              "type": "bytes32"
            },
            {
              "internalType": "address",
              "name": "publisher",
              "type": "address"
            },
            {
              "internalType": "uint256",
              "name": "timestamp",
              "type": "uint256"
            },
            {
              "internalType": "string",
              "name": "attackType",
              "type": "string"
            }
          ],
          "internalType": "struct CTIRegistry.CTIRecord",
          "name": "",
          "type": "tuple"
        }
      ],
      "stateMutability": "view",
      "type": "function"
    },
    {
      "inputs": [
        {
          "internalType": "bytes32",
          "name": "reportKey",
          "type": "bytes32"
        },
        {
          "internalType": "bytes32",
          "name": "contentHash",
          "type": "bytes32"
        },
        {
          "internalType": "string",
          "name": "attackType",
          "type": "string"
        }
      ],
      "name": "publishCTI",
      "outputs": [],
      "stateMutability": "nonpayable",
      "type": "function"
    },
    {
      "inputs": [
        {
          "internalType": "bytes32",
          "name": "reportKey",
          "type": "bytes32"
        },
        {
          "internalType": "bytes32",
          "name": "contentHash",
          "type": "bytes32"
        }
      ],
      "name": "verifyCTI",
      "outputs": [
        {
          "internalType": "bool",
          "name": "matches",
          "type": "bool"
        }
      ],
      "stateMutability": "view",
      "type": "function"
    }
  ],
  "bytecode": "0x6080604052348015600e575f5ffd5b506106948061001c5f395ff3fe608060405234801561000f575f5ffd5b506004361061003f575f3560e01c80631d87007014610043578063d26711fd1461006c578063e46591361461008f575b5f5ffd5b6100566100513660046103b8565b6100a4565b60405161006391906103cf565b60405180910390f35b61007f61007a366004610433565b610214565b6040519015158152602001610063565b6100a261009d366004610453565b610246565b005b6100d560405180608001604052805f81526020015f6001600160a01b031681526020015f8152602001606081525090565b5f8281526020819052604081206002015490036101395760405162461bcd60e51b815260206004820152601d60248201527f43544952656769737472793a207265706f7274206e6f7420666f756e6400000060448201526064015b60405180910390fd5b5f828152602081815260409182902082516080810184528154815260018201546001600160a01b03169281019290925260028101549282019290925260038201805491929160608401919061018d906104cf565b80601f01602080910402602001604051908101604052809291908181526020018280546101b9906104cf565b80156102045780601f106101db57610100808354040283529160200191610204565b820191905f5260205f20905b8154815290600101906020018083116101e757829003601f168201915b5050505050815250509050919050565b5f828152602081905260408120548214801561023f57505f8381526020819052604090206002015415155b9392505050565b5f84815260208190526040902060020154156102b25760405162461bcd60e51b815260206004820152602560248201527f43544952656769737472793a207265706f727420616c7265616479207075626c6044820152641a5cda195960da1b6064820152608401610130565b6040518060800160405280848152602001336001600160a01b0316815260200142815260200183838080601f0160208091040260200160405190810160405280939291908181526020018383808284375f920182905250939094525050868152602081815260409182902084518155908401516001820180546001600160a01b0319166001600160a01b03909216919091179055908301516002820155606083015190915060038201906103669082610567565b50905050336001600160a01b0316847f4e7ef6d7debdfb0c8ff82fc76f27562e51c9acf894276b7b88ca9d3a7ceb7a05854286866040516103aa9493929190610622565b60405180910390a350505050565b5f602082840312156103c8575f5ffd5b5035919050565b602081528151602082015260018060a01b036020830151166040820152604082015160608201525f606083015160808084015280518060a0850152806020830160c086015e5f60c0828601015260c0601f19601f8301168501019250505092915050565b5f5f60408385031215610444575f5ffd5b50508035926020909101359150565b5f5f5f5f60608587031215610466575f5ffd5b8435935060208501359250604085013567ffffffffffffffff81111561048a575f5ffd5b8501601f8101871361049a575f5ffd5b803567ffffffffffffffff8111156104b0575f5ffd5b8760208284010111156104c1575f5ffd5b949793965060200194505050565b600181811c908216806104e357607f821691505b60208210810361050157634e487b7160e01b5f52602260045260245ffd5b50919050565b634e487b7160e01b5f52604160045260245ffd5b601f82111561056257805f5260205f20601f840160051c810160208510156105405750805b601f840160051c820191505b8181101561055f575f815560010161054c565b50505b505050565b815167ffffffffffffffff81111561058157610581610507565b6105958161058f84546104cf565b8461051b565b6020601f8211600181146105c7575f83156105b05750848201515b5f19600385901b1c1916600184901b17845561055f565b5f84815260208120601f198516915b828110156105f657878501518255602094850194600190920191016105d6565b508482101561061357868401515f19600387901b60f8161c191681555b50505050600190811b01905550565b84815283602082015260606040820152816060820152818360808301375f818301608090810191909152601f909201601f19160101939250505056fea26469706673582212201833b4be7035ee502a7c2caaaf6793e43143a060acfd29b02a2cd6691f9bc91e64736f6c634300081c0033",
  "linkReferences": {},
  "deployedLinkReferences": {},
  "immutableReferences": {},
  "inputSourceName": "project/contracts/CTIRegistry.sol",
  "buildInfoId": "solc-0_8_28-b3aacc011101206da1a5189e5e5e4a6bc12f3af0"
}